:100000000C945C000C9479000C9479000C947900A9
:100010000C9479000C9479000C9479000C9479007C
:100020000C9479000C9479000C9479000C9479006C
:100030000C9479000C9479000C9479000C9479005C
:100040000C9475010C9479000C9479000C9479004F
:100050000C9479000C9479000C9479000C9479003C
:100060000C9479000C947900000000070002010054
:100070000003040600000000000000000102040864
:100080001020408001020408102001020408102002
:10009000040404040404040402020202020203032E
:1000A0000303030300000000250028002B000000CC
:1000B0000000240027002A0011241FBECFEFD8E043
:1000C000DEBFCDBF11E0A0E0B1E0E8E9F4E002C09E
:1000D00005900D92A830B107D9F711E0A8E0B1E082
:1000E00001C01D92A131B107E1F70E947B000C9481
:1000F0004A020C9400000E940F0261E0809104010A
:100100000E94060161E0809102010E94060161E007
:10011000809100010E940601C0E0D0E061E0809182
:1001200004010E943E016091060170910701882739
:1001300077FD8095982F0E94E90161E0809102018E
:100140000E943E0160ED77E080E090E00E94E901CE
:1001500061E0809100010E943E0160E08091040115
:100160000E943E0160E0809102010E943E01609188
:10017000060170910701882777FD8095982F0E94CE
:10018000E90161E0809102010E943E0160E08091FE
:1001900000010E943E0160ED77E080E090E00E9467
:1001A000E90160E0809102010E943E01209709F47C
:1001B000B5CF0E940000B2CF833069F028F48130BF
:1001C000A1F0823011F514C08630B1F08730C1F053
:1001D0008430D9F404C0809180008F7703C080916F
:1001E00080008F7D80938000089584B58F7702C052
:1001F00084B58F7D84BD08958091B0008F7703C052
:100200008091B0008F7D8093B0000895CF93DF93ED
:1002100090E0FC01E458FF4F4491FC01E057FF4F90
:100220008491882341F190E0880F991FFC01E255E9
:10023000FF4F25913491D9018C559F4FFC01859139
:100240009491C82FD92F9FB7F8948C91611106C053
:10025000409584238C938881842308C0623041F4C4
:10026000242F209582238C938881842B888302C03D
:10027000842B8C939FBFDF91CF9108950F931F9391
:10028000CF93DF931F92CDB7DEB7282F30E0F9016F
:10029000E859FF4F8491F901E458FF4F1491F90197
:1002A000E057FF4F04910023D1F0882321F06983A8
:1002B0000E94DC006981E02FF0E0EE0FFF1FEC559B
:1002C000FF4F85919491DC019FB7F8948C91611157
:1002D00003C01095812301C0812B8C939FBF0F9089
:1002E000DF91CF911F910F9108951F920F920FB63A
:1002F0000F9211242F933F938F939F93AF93BF93AC
:100300008091080190910901A0910A01B0910B011F
:1003100030911001232F2D5F2D3720F40196A11D60
:10032000B11D05C0232F2A570296A11DB11D209390
:1003300010018093080190930901A0930A01B093E2
:100340000B0180910C0190910D01A0910E01B091D3
:100350000F010196A11DB11D80930C0190930D0119
:10036000A0930E01B0930F01BF91AF919F918F9118
:100370003F912F910F900FBE0F901F9018950F93E4
:100380001F939FB7F89400910C0110910D012091DB
:100390000E0130910F0186B5A89B06C08F3F21F05A
:1003A0000F5F1F4F2F4F3F4F9FBF322F212F102F17
:1003B0000027080F111D211D311D42E0000F111FE4
:1003C000221F331F4A95D1F7B801C9011F910F9120
:1003D0000895CF92DF92EF92FF92CF93DF936B015C
:1003E0007C010E94BF01EB010EC00E94BF016C1B8B
:1003F0007D0B683E734038F081E0C81AD108E108EF
:10040000F108C851DC4FC114D104E104F10469F7CB
:10041000DF91CF91FF90EF90DF90CF900895789487
:1004200084B5826084BD84B5816084BD85B58260F9
:1004300085BD85B5816085BDEEE6F0E08081816097
:100440008083E1E8F0E01082808182608083808197
:1004500081608083E0E8F0E0808181608083E1EB6F
:10046000F0E0808184608083E0EBF0E08081816057
:100470008083EAE7F0E0808184608083808182600D
:1004800080838081816080838081806880831092F6
:08049000C1000895F894FFCFAC
:08049800080009000A0010270A
:00000001FF
