:200000000C945C000C9479000C9479000C9479000C9479000C9479000C9479000C94790035
:200020000C9479000C9479000C9479000C9479000C9479000C9479000C9479000C947900F8
:200040000C9465010C9479000C9479000C9479000C9479000C9479000C9479000C947900EB
:200060000C9479000C94790000000007000201000003040600000000000000000102040828
:200080001020408001020408102001020408102004040404040404040202020202020303C0
:2000A0000303030300000000250028002B0000000000240027002A0011241FBECFEFD8E0BF
:2000C000DEBFCDBF11E0A0E0B1E0E2E9F6E002C005900D92A630B107D9F711E0A6E0B1E0F8
:2000E00001C01D92AF30B107E1F70E947B000C9447030C9400000E94FF0161E08DE00E9488
:20010000F60080E00E94AB000E943A02C0E0D0E061E08DE00E942E0128EE33E040E050E016
:2001200060E070E0CB010E946E020E94D90160E08DE00E942E0128EE33E040E050E060E09E
:2001400070E0CB010E946E020E94D901209701F30E940000DDCF8E3008F08E5087702091C0
:20016000040140E4249F90011124822B80937C0080917A00806480937A0080917A0086FD87
:20018000FCCF2091780030917900932F80E0AC01422B9A01C9010895833069F028F481301A
:2001A000A1F0823011F514C08630B1F08730C1F08430D9F404C0809180008F7703C08091B3
:2001C00080008F7D80938000089584B58F7702C084B58F7D84BD08958091B0008F7703C0B5
:2001E0008091B0008F7D8093B0000895CF93DF9390E0FC01E458FF4F4491FC01E057FF4FB0
:200200008491882341F190E0880F991FFC01E255FF4F25913491D9018C559F4FFC01859174
:200220009491C82FD92F9FB7F8948C91611106C0409584238C938881842308C0623041F489
:20024000242F209582238C938881842B888302C0842B8C939FBFDF91CF9108950F931F9360
:20026000CF93DF931F92CDB7DEB7282F30E0F901E859FF4F8491F901E458FF4F1491F901B8
:20028000E057FF4F04910023D1F0882321F069830E94CC006981E02FF0E0EE0FFF1FEC5525
:2002A000FF4F85919491DC019FB7F8948C91611103C01095812301C0812B8C939FBF0F90D2
:2002C000DF91CF911F910F9108951F920F920FB60F9211242F933F938F939F93AF93BF93F8
:2002E0008091060190910701A0910801B091090130910E01232F2D5F2D3720F40196A11DBD
:20030000B11D05C0232F2A570296A11DB11D20930E018093060190930701A0930801B093CD
:20032000090180910A0190910B01A0910C01B0910D010196A11DB11D80930A0190930B016D
:20034000A0930C01B0930D01BF91AF919F918F913F912F910F900FBE0F901F9018950F9393
:200360001F939FB7F89400910A0110910B0120910C0130910D0186B5A89B06C08F3F21F0F0
:200380000F5F1F4F2F4F3F4F9FBF322F212F102F0027080F111D211D311D42E0000F111FCE
:2003A000221F331F4A95D1F7B801C9011F910F910895CF92DF92EF92FF92CF93DF936B016F
:2003C0007C010E94AF01EB010EC00E94AF016C1B7D0B683E734038F081E0C81AD108E108AD
:2003E000F108C851DC4FC114D104E104F10469F7DF91CF91FF90EF90DF90CF900895789487
:2004000084B5826084BD84B5816084BD85B5826085BD85B5816085BDEEE6F0E080818160E4
:200420008083E1E8F0E01082808182608083808181608083E0E8F0E0808181608083E1EB7A
:20044000F0E0808184608083E0EBF0E0808181608083EAE7F0E080818460808380818260F8
:2004600080838081816080838081806880831092C1000895009729F0BC0180E090E00C94CB
:20048000360308950F931F93CF93DF9300D000D0CDB7DEB79B01AC01611571058105910554
:2004A00079F069833A834B835C830E94310329813A814B815C810E948C028B019C0103C07D
:2004C00000E010E09801B801C9010F900F900F900F90DF91CF911F910F910895CF92DF9225
:2004E000EF92FF926B017C01621773078407950764F4CA01B9016C197D098E099F090E941E
:200500004202C60ED71EE81EF91EB601C701FF90EF90DF90CF900895052E97FB16F4009456
:2005200007D057FD0DD00E94B30207FC09D07EF490958095709561957F4F8F4F9F4F0895A2
:2005400050954095309521953F4F4F4F5F4F08950E94D502A59F900DB49F900DA49F800DD5
:20056000911D11240895A1E21A2EAA1BBB1BFD010DC0AA1FBB1FEE1FFF1FA217B307E4079E
:20058000F50720F0A21BB30BE40BF50B661F771F881F991F1A9469F7609570958095909529
:2005A0009B01AC01BD01CF010895A29FB001B39FC001A39F01D0B29F700D811D1124911D60
:2005C00008958F929F92AF92BF92CF92DF92EF92FF92CF93DF93EC01688179818A819B81EB
:2005E000611571058105910521F464E279ED8BE597E02DE133EF41E050E00E948C02490150
:200600005A019B01AC01A7EAB1E40E94A8026B017C01ACEEB4EFA50194010E944203C60EA8
:20062000D71EE81EF91EF7FE06C081E0C81AD108E10880E8F80AC882D982EA82FB82E89474
:20064000F7F8B601C701DF91CF91FF90EF90DF90CF90BF90AF909F908F9008950E94E10282
:20066000089580E091E00E94E1020895609300017093010180930201909303010895B7FF61
:200680000C94A8020E94A802821B930B0895F894FFCF010000000100FFFFFFFFFFFFFFFF98
:2006A000FFFFFFFFFFFFFFFFFFFFFFFFFFFFFFFFFFFFFFFFFFFFFFFFFFFFFFFFFFFFFFFF5A
:2006C000FFFFFFFFFFFFFFFFFFFFFFFFFFFFFFFFFFFFFFFFFFFFFFFFFFFFFFFFFFFFFFFF3A
:2006E000FFFFFFFFFFFFFFFFFFFFFFFFFFFFFFFFFFFFFFFFFFFFFFFFFFFFFFFFFFFFFFFF1A
:200700004F4F5F4F089590958095709561957F4F8F4F9F4F08950E94B803A59F900DB49FF3
:20072000900DA49F800D911D11240895A1E21A2EAA1BBB1BFD010DC0AA1FBB1FEE1FFF1FCD
:20074000A217B307E407F50720F0A21BB30BE40BF50B661F771F881F991F1A9469F7609548
:200760007095809590959B01AC01BD01CF010895A29FB001B39FC001A39F700D811D11242F
:20078000911DB29F700D811D1124911D08958F929F92AF92BF92CF92DF92EF92FF92CF9395
:2007A000DF93EC01688179818A819B81611571058105910521F464E279ED8BE597E02DE112
:2007C00033EF41E050E00E946C0349015A019B01AC01A7EAB1E40E948B036B017C01ACEECE
:2007E000B4EFA50194010E942704C60ED71EE81EF91EF7FE06C081E0C81AD108E10880E840
:20080000F80AC882D982EA82FB82C701B6019F77DF91CF91FF90EF90DF90CF90BF90AF9079
:200820009F908F9008950E94C703089580E091E00E94C703089560930001709301018093DE
:200840000201909303010895B7FF0C948B030E948B03821B930B0895F894FFCF010000008A
:20086000010002000300040005000600FFFFFFFFFFFFFFFFFFFFFFFFFFFFFFFFFFFFFFFF77
:2008800006C081E0C81AD108E10880E8F80AC882D982EA82FB82C701B6019F77DF91CF9130
:2008A000FF90EF90DF90CF90BF90AF909F908F9008950E940D04089580E091E00E940D040F
:2008C0000895609300017093010180930201909303010895B7FF0C94D1030E94D103821B6B
:2008E000930B0895F894FFCF01000000010002000300040005000600FFFFFFFFFFFFFFFF55
:20090000CF9008956115710581F0DB010D900020E9F7AD0141505109461B570BDC01ED914E
:20092000FC910280F381E02D099480E090E00895DC01ED91FC91DB0114964D915C91159738
:200940006D917C910280F381E02D0994DC01ED91FC910190F081E02D09940F931F93CF93A2
:20096000DF93EC016DE00E94A6048C016AE0CE010E94A604800F911FDF91CF911F910F912E
:2009800008950F931F93CF93DF93EC010E9498048C01CE010E94AD04800F911FDF91CF91A9
:2009A0001F910F9108950F931F93CF93DF93EC010E9482048C01CE010E94AD04800F911F1F
:2009C000DF91CF911F910F910895FC01808191810C949D07CF93DF93EC018881998100978B
:2009E00011F00E949D07198218821D821C821B821A82DF91CF9108950F931F93CF93DF9370
:200A0000EC018B016F5F7F4F888199810E942C08009731F0998388831B830A8381E001C09C
:200A200080E0DF91CF911F910F910895CF93DF93EC0188819981892B29F08A819B81861724
:200A4000970760F4CE010E94FC04882341F08C819D81892B19F4E881F981108281E0DF9125
:200A6000CF910895EF92FF920F931F93CF93DF93EC017B018A01BA010E941605811104C07D
:200A8000CE010E94EA0407C01D830C83B701888199810E94FF08CE01DF91CF911F910F918E
:200AA000FF90EF900895FC011182108213821282158214826115710559F0FB010190002031
:200AC000E9F7AF0141505109461B570B0C9432050895CF93DF93EC01FB018617970761F01B
:200AE000608171816115710529F0448155810E94320502C00E94EA04CE01DF91CF9108951C
:200B0000FC011182108213821282158214820C946905CF93DF93EC016115710561F0FB0155
:200B200001900020E9F7AF0141505109461B570B0E94320502C00E94EA04CE01DF91CF91FC
:200B40000895EF92FF920F931F93CF93DF93EC017B010C811D816115710511F480E016C003
:200B60004115510591F0040F151FB8010E9416058823A1F3288139818C819D81B701820F75
:200B8000931F0E94FF081D830C8381E0DF91CF911F910F91FF90EF900895CF93DF9300D0FB
:200BA000CDB7DEB769831A8241E050E0BE016F5F7F4F0E94A1050F900F90DF91CF910895F5
:200BC000EF92FF920F931F93CF93DF93CDB7DEB728970FB6F894DEBF0FBECDBF7C01CB0173
:200BE0004AE050E08E010F5F1F4FB8010E940609F80101900020E9F7AF0141505109401B46
:200C0000510BB801C7010E94A10528960FB6F894DEBF0FBECDBFDF91CF911F910F91FF90FB
:200C2000EF900895EF92FF920F931F93CF93DF93CDB7DEB72E970FB6F894DEBF0FBECDBF39
:200C40007C01CB01BA012AE030E08E010F5F1F4FA8010E941C09F80101900020E9F7AF0161
:200C600041505109401B510BB801C7010E94A1052E960FB6F894DEBF0FBECDBFDF91CF912E
:200C80001F910F91FF90EF900895EF92FF920F931F93CF93DF93CDB7DEB72D970FB6F894F1
:200CA000DEBF0FBECDBF7C01CB01BA012AE030E08E010F5F1F4FA8010E943609F8010190A1
:200CC0000020E9F7AF0141505109401B510BB801C7010E94A1052D960FB6F894DEBF0FBE7B
:200CE000CDBFDF91CF911F910F91FF90EF900895CF93DF93EC01FB01448155816081718172
:200D00000E94A105811103C0CE010E94EA04CE01DF91CF910895CF93DF93EC0161157105EE
:200D200069F0FB0101900020E9F7AF0141505109461B570B0E94A105811103C0CE010E9461
:200D4000EA04CE01DF91CF910895CF93DF93EC010E94CD05811103C0CE010E94EA04CE01B1
:200D6000DF91CF910895CF93DF93EC010E94E005811103C0CE010E94EA04CE01DF91CF916B
:200D80000895CF93DF93EC010E941206811103C0CE010E94EA04CE01DF91CF910895CF93E9
:200DA000DF93EC010E944506811103C0CE010E94EA04CE01DF91CF910895A1E21A2EAA1B67
:200DC000BB1BFD010DC0AA1FBB1FEE1FFF1FA217B307E407F50720F0A21BB30BE40BF50BD0
:200DE000661F771F881F991F1A9469F760957095809590959B01AC01BD01CF010895EE0FC6
:200E0000FF1F0590F491E02D0994CF93DF938230910510F482E090E0E0913C02F0913D028F
:200E200020E030E0A0E0B0E0309739F14081518148175907B8F04817590771F4828193816C
:200E4000109729F013969C938E9312972CC090933D0280933C0227C02115310531F04217C4
:200E6000530718F0A901DB0101C0EF019A01BD01DF010280F381E02DD7CF21153105F9F0A2
:200E8000281B390B2430310580F48A819B816115710521F0FB019383828304C090933D026C
:200EA00080933C02FE01329644C0FE01E20FF31F8193919322503109398328833AC020911E
:200EC0003A0230913B02232B41F4209102013091030130933B0220933A022091000130917A
:200EE00001012115310541F42DB73EB74091040150910501241B350BE0913A02F0913B02CF
:200F0000E217F307A0F42E1B3F0B2817390778F0AC014E5F5F4F2417350748F04E0F5F1F3E
:200F200050933B0240933A028193919302C0E0E0F0E0CF01DF91CF910895CF93DF93009750
:200F400009F487C0FC01329713821282C0913C02D0913D02209781F420813181280F391F21
:200F600080913A0290913B028217930779F5F0933B02E0933A026DC0DE0120E030E0AE17D5
:200F8000BF0750F412964D915C9113979D014115510509F1DA01F3CFB383A283408151815B
:200FA000840F951F8A179B0771F48D919C911197840F951F02969183808312968D919C9166
:200FC0001397938382832115310529F4F0933D02E0933C023EC0D9011396FC93EE93129716
:200FE0004D915D91A40FB51FEA17FB0779F480819181840F951F0296D90111969C938E936B
:201000008281938113969C938E931297E0E0F0E08A819B81009719F0FE01EC01F9CFCE013D
:20102000029628813981820F931F20913A0230913B022817390769F4309729F410923D02E6
:2010400010923C0202C013821282D0933B02C0933A02DF91CF910895A0E0B0E0E2E3F8E07C
:201060000C949109EC01CB01209719F40E940507B8C0FE01E60FF71F9E0122503109E21745
:20108000F30708F4ACC0D9010D911C91119706171707B8F00530110508F49FC0A80144505B
:2010A00051094617570708F498C002501109061B170B019311936D937C93CF010E949D07BB
:2010C0008CC05B01A01AB10A4E01800E911EA0913C02B0913D02612C712C60E070E0109717
:2010E00009F449C0A815B905C9F5ED90FC901197670142E0C40ED11CCA14DB0478F1470149
:201100008A189B08640142E0C40ED11C1296BC9012971396AC91B5E0CB16D10440F0B28212
:20112000A38391828082D9018D939C9309C00E5F1F4F0E0D1F1DF90111830083EB2DFA2FFE
:201140006115710531F0DB011396FC93EE93129744C0F0933D02E0933C023FC06D917C91C3
:2011600011976616770608F43B01BD0112960D90BC91A02DB4CF60913A0270913B0268150E
:201180007905E9F468167906D0F440910001509101014115510541F44DB75EB7609104018E
:2011A00070910501461B570BE417F507C0F4F0933B02E0933A02F901918380830EC00E94CA
:2011C00005077C01009759F0A801BE010E94F608CE010E949D07C70104C0CE0102C080E00C
:2011E00090E0CDB7DEB7EEE00C94AD09FB01DC0102C001900D9241505040D8F70895FB01EE
:20120000DC0101900D920020E1F708954532510520F4423010F00C941109FB011082CB01C5
:201220000895BB274A3031F4992322F4BDE2909581959F4F0C9464092532310520F42230F6
:2012400010F00C942709FA011082CA010895BB272A3051F4992342F4BDE290958095709578
:2012600061957F4F8F4F9F4F0C9442092532310520F4223010F00C944109FA011082CA01BE
:201280000895BB27FA01A62F6217710581059105330B30FB66F0AA27660F771F881F991FFA
:2012A000AA1FA21710F0A21B63953850A9F7A05DAA3308F0A95DA19336F7B111B1931082FE
:2012C000CA010C947D09BB27FB015527AA27880F991FAA1FA41710F0A41B83955051B9F7F7
:2012E000A05DAA3308F0A95DA193009779F7B111B1931192CB010C947D09DC01FC01672FD0
:2013000071917723E1F7329704C07C916D9370836291AE17BF07C8F308952F923F924F9283
:201320005F926F927F928F929F92AF92BF92CF92DF92EF92FF920F931F93CF93DF93CDB736
:20134000DEB7CA1BDB0B0FB6F894DEBF0FBECDBF09942A88398848885F846E847D848C8420
:201360009B84AA84B984C884DF80EE80FD800C811B81AA81B981CE0FD11D0FB6F894DEBF06
:201380000FBECDBFED01089510E0CCE6D0E004C0FE010E9401072296CE36D107C9F7F894CA
:2013A000FFCF00003E02800001737472696E675468726565203D2000746869732073747261
:2013C000696E67000A0A416464696E6720737472696E677320746F6765746865722028631D
:2013E0006F6E636174656E6174696F6E293A006162630053656E736F722076616C75653A70
:2014000020006D696C6C697328292076616C75653A200000000000DE025A04600279026BB4
:2014200002BC0200FFFFFFFFFFFFFFFFFFFFFFFFFFFFFFFFFFFFFFFFFFFFFFFFFFFFFFFF08
:20144000FFFFFFFFFFFFFFFFFFFFFFFFFFFFFFFFFFFFFFFFFFFFFFFFFFFFFFFFFFFFFFFFAC
:20146000FFFFFFFFFFFFFFFFFFFFFFFFFFFFFFFFFFFFFFFFFFFFFFFFFFFFFFFFFFFFFFFF8C
:20148000FFFFFFFFFFFFFFFFFFFFFFFFFFFFFFFFFFFFFFFFFFFFFFFFFFFFFFFFFFFFFFFF6C
:2014A000FFFFFFFFFFFFFFFFFFFFFFFFFFFFFFFFFFFFFFFFFFFFFFFFFFFFFFFFFFFFFFFF4C
:207E0000112484B714BE81FFF0D085E08093810082E08093C00088E18093C10086E08093FC
:207E2000C20080E18093C4008EE0C9D0259A86E020E33CEF91E0309385002093840096BBAD
:207E4000B09BFECF1D9AA8958150A9F7CC24DD2488248394B5E0AB2EA1E19A2EF3E0BF2E79
:207E6000A2D0813461F49FD0082FAFD0023811F0013811F484E001C083E08DD089C0823404
:207E800011F484E103C0853419F485E0A6D080C0853579F488D0E82EFF2485D0082F10E0A0
:207EA000102F00270E291F29000F111F8ED068016FC0863521F484E090D080E0DECF84364D
:207EC00009F040C070D06FD0082F6DD080E0C81680E7D80618F4F601B7BEE895C0E0D1E0ED
:207EE00062D089930C17E1F7F0E0CF16F0E7DF0618F0F601B7BEE89568D007B600FCFDCF1A
:207F0000A601A0E0B1E02C9130E011968C91119790E0982F8827822B932B1296FA010C016F
:207F200087BEE89511244E5F5F4FF1E0A038BF0751F7F601A7BEE89507B600FCFDCF97BE85
:207F4000E89526C08437B1F42ED02DD0F82E2BD03CD0F601EF2C8F010F5F1F4F84911BD0B8
:207F6000EA94F801C1F70894C11CD11CFA94CF0CD11C0EC0853739F428D08EE10CD085E9AE
:207F80000AD08FE07ACF813511F488E018D01DD080E101D065CF982F8091C00085FFFCCF0A
:207FA0009093C60008958091C00087FFFCCF8091C00084FD01C0A8958091C6000895E0E68F
:207FC000F0E098E1908380830895EDDF803219F088E0F5DFFFCF84E1DECF1F93182FE3DF47
:207FE0001150E9F7F2DF1F91089580E0E8DFEE27FF270994FFFFFFFFFFFFFFFFFFFF040425
:00000001FF
