:100000000C945C000C9479000C9479000C947900A9
:100010000C9479000C9479000C9479000C9479007C
:100020000C9479000C9479000C9479000C9479006C
:100030000C9479000C9479000C9479000C9479005C
:100040000C9460010C9479000C9479000C94790064
:100050000C9479000C9479000C9479000C9479003C
:100060000C9479000C947900000000070002010054
:100070000003040600000000000000000102040864
:100080001020408001020408102001020408102002
:10009000040404040404040402020202020203032E
:1000A0000303030300000000250028002B000000CC
:1000B0000000240027002A0011241FBECFEFD8E043
:1000C000DEBFCDBF11E0A0E0B1E0E0E7F6E002C0A6
:1000D00005900D92A630B107D9F721E0A6E0B1E076
:1000E00001C01D92AF30B207E1F70E947B000C9473
:1000F00036030C9400000E94F30161E08DE00E9441
:10010000F10080E00E94AB000E942E02C0E0D0E02F
:1001100061E08DE00E942A0128EE33E040E050E0EB
:1001200060E070E0CB010E945A020E94CD0160E0C5
:100130008DE00E942A0128EE33E040E050E060E0CC
:1001400070E0CB010E945A020E94CD01209701F37A
:100150000E940000DDCF8E3008F08E508770209115
:10016000040190E4299F90011124822B80937C004C
:1001700080917A00806480937A0080917A0086FD75
:10018000FCCF809178002091790090E0922B089527
:10019000833081F028F4813099F08230A1F0089505
:1001A0008630A9F08730B9F08430D1F48091800096
:1001B0008F7D03C0809180008F77809380000895A9
:1001C00084B58F7702C084B58F7D84BD08958091FA
:1001D000B0008F7703C08091B0008F7D8093B00016
:1001E0000895CF93DF9390E0FC01E458FF4F2491F2
:1001F000FC01E057FF4F8491882349F190E0880F7C
:10020000991FFC01E255FF4FA591B4918C559F4F6A
:10021000FC01C591D4919FB7611108C0F8948C91ED
:10022000209582238C93888182230AC0623051F406
:10023000F8948C91322F309583238C938881822B74
:10024000888304C0F8948C91822B8C939FBFDF919C
:10025000CF9108950F931F93CF93DF931F92CDB744
:10026000DEB7282F30E0F901E859FF4F8491F901FA
:10027000E458FF4F1491F901E057FF4F0491002318
:10028000C9F0882321F069830E94C8006981E02FAA
:10029000F0E0EE0FFF1FEC55FF4FA591B4919FB713
:1002A000F8948C91611103C01095812301C0812BBA
:1002B0008C939FBF0F90DF91CF911F910F91089565
:1002C0001F920F920FB60F9211242F933F938F938B
:1002D0009F93AF93BF938091070190910801A091E4
:1002E0000901B0910A013091060123E0230F2D3757
:1002F00020F40196A11DB11D05C026E8230F02962A
:10030000A11DB11D20930601809307019093080160
:10031000A0930901B0930A0180910B0190910C0107
:10032000A0910D01B0910E010196A11DB11D809308
:100330000B0190930C01A0930D01B0930E01BF919E
:10034000AF919F918F913F912F910F900FBE0F9082
:100350001F9018953FB7F89480910B0190910C0174
:10036000A0910D01B0910E0126B5A89B05C02F3FAD
:1003700019F00196A11DB11D3FBF6627782F892F67
:100380009A2F620F711D811D911D42E0660F771F2C
:10039000881F991F4A95D1F70895CF92DF92EF9267
:1003A000FF92CF93DF936B017C010E94AA01EB01C6
:1003B000C114D104E104F10479F00E94AA016C1B7C
:1003C0007D0B683E7340A0F381E0C81AD108E108B4
:1003D000F108C851DC4FECCFDF91CF91FF90EF9047
:1003E000DF90CF900895789484B5826084BD84B501
:1003F000816084BD85B5826085BD85B5816085BD20
:10040000EEE6F0E0808181608083E1E8F0E0108238
:10041000808182608083808181608083E0E8F0E079
:10042000808181608083E1EBF0E080818460808363
:10043000E0EBF0E0808181608083EAE7F0E080819A
:1004400084608083808182608083808181608083FA
:100450008081806880831092C1000895009729F000
:10046000BC0180E090E00C9425030895CF93DF93C6
:1004700000D000D0CDB7DEB79B01AC01611571058E
:100480008105910569F069833A834B835C830E94FF
:10049000200329813A814B815C810E94760203C04E
:1004A00060E070E0CB010F900F900F900F90DF9104
:1004B000CF910895CF92DF92EF92FF926B017C0172
:1004C000621773078407950764F4CA01B9016C19B0
:1004D0007D098E099F090E9436026C0D7D1D8E1DBF
:1004E0009F1DFF90EF90DF90CF900895052E97FB12
:1004F0001EF400940E948D0257FD07D00E94A002B6
:1005000007FC03D04EF40C948D0250954095309525
:1005100021953F4F4F4F5F4F08959095809570956F
:1005200061957F4F8F4F9F4F08950E94C202A59FF4
:10053000900DB49F900DA49F800D911D11240895DE
:10054000A1E21A2EAA1BBB1BFD010DC0AA1FBB1FD7
:10055000EE1FFF1FA217B307E407F50720F0A21B49
:10056000B30BE40BF50B661F771F881F991F1A94B6
:1005700069F760957095809590959B01AC01BD01E0
:10058000CF010895A29FB001B39FC001A39F700D3A
:10059000811D1124911DB29F700D811D1124911D8B
:1005A00008958F929F92AF92BF92CF92DF92EF9277
:1005B000FF92CF93DF93EC01688179818A819B81DF
:1005C000611571058105910521F464E279ED8BE5F2
:1005D00097E02DE133EF41E050E00E9476024901BF
:1005E0005A019B01AC01A7EAB1E40E9495026B019C
:1005F0007C01ACEEB4EFA50194010E943103C60E5C
:10060000D71EE81EF91EF7FE06C081E0C81AD10801
:10061000E10880E8F80AC882D982EA82FB82C70131
:10062000B6019F77DF91CF91FF90EF90DF90CF9051
:10063000BF90AF909F908F9008950E94D10208952F
:1006400080E091E00E94D1020895609300017093D0
:10065000010180930201909303010895B7FF0C9468
:1006600095020E949502821B930B0895F894FFCF88
:0606700001000000010082
:00000001FF
