:200000000C945C000C9479000C9479000C9479000C9479000C9479000C9479000C94790035
:200020000C9479000C9479000C9479000C9479000C9479000C9479000C9479000C947900F8
:200040000C9465010C9479000C9479000C9479000C9479000C9479000C9479000C947900EB
:200060000C9479000C94790000000007000201000003040600000000000000000102040828
:200080001020408001020408102001020408102004040404040404040202020202020303C0
:2000A0000303030300000000250028002B0000000000240027002A0011241FBECFEFD8E0BF
:2000C000DEBFCDBF11E0A0E0B1E0E2E9F6E002C005900D92A630B107D9F711E0A6E0B1E0F8
:2000E00001C01D92AF30B107E1F70E947B000C9447030C9400000E94FF0161E08DE00E9488
:20010000F60080E00E94AB000E943A02C0E0D0E061E08DE00E942E0128EE33E040E050E016
:2001200060E070E0CB010E946E020E94D90160E08DE00E942E0128EE33E040E050E060E09E
:2001400070E0CB010E946E020E94D901209701F30E940000DDCF8E3008F08E5087702091C0
:20016000040140E4249F90011124822B80937C0080917A00806480937A0080917A0086FD87
:20018000FCCF2091780030917900932F80E0AC01422B9A01C9010895833069F028F481301A
:2001A000A1F0823011F514C08630B1F08730C1F08430D9F404C0809180008F7703C08091B3
:2001C00080008F7D80938000089584B58F7702C084B58F7D84BD08958091B0008F7703C0B5
:2001E0008091B0008F7D8093B0000895CF93DF9390E0FC01E458FF4F4491FC01E057FF4FB0
:200200008491882341F190E0880F991FFC01E255FF4F25913491D9018C559F4FFC01859174
:200220009491C82FD92F9FB7F8948C91611106C0409584238C938881842308C0623041F489
:20024000242F209582238C938881842B888302C0842B8C939FBFDF91CF9108950F931F9360
:20026000CF93DF931F92CDB7DEB7282F30E0F901E859FF4F8491F901E458FF4F1491F901B8
:20028000E057FF4F04910023D1F0882321F069830E94CC006981E02FF0E0EE0FFF1FEC5525
:2002A000FF4F85919491DC019FB7F8948C91611103C01095812301C0812B8C939FBF0F90D2
:2002C000DF91CF911F910F9108951F920F920FB60F9211242F933F938F939F93AF93BF93F8
:2002E0008091060190910701A0910801B091090130910E01232F2D5F2D3720F40196A11DBD
:20030000B11D05C0232F2A570296A11DB11D20930E018093060190930701A0930801B093CD
:20032000090180910A0190910B01A0910C01B0910D010196A11DB11D80930A0190930B016D
:20034000A0930C01B0930D01BF91AF919F918F913F912F910F900FBE0F901F9018950F9393
:200360001F939FB7F89400910A0110910B0120910C0130910D0186B5A89B06C08F3F21F0F0
:200380000F5F1F4F2F4F3F4F9FBF322F212F102F0027080F111D211D311D42E0000F111FCE
:2003A000221F331F4A95D1F7B801C9011F910F910895CF92DF92EF92FF92CF93DF936B016F
:2003C0007C010E94AF01EB010EC00E94AF016C1B7D0B683E734038F081E0C81AD108E108AD
:2003E000F108C851DC4FC114D104E104F10469F7DF91CF91FF90EF90DF90CF900895789487
:2004000084B5826084BD84B5816084BD85B5826085BD85B5816085BDEEE6F0E080818160E4
:200420008083E1E8F0E01082808182608083808181608083E0E8F0E0808181608083E1EB7A
:20044000F0E0808184608083E0EBF0E0808181608083EAE7F0E080818460808380818260F8
:2004600080838081816080838081806880831092C1000895009729F0BC0180E090E00C94CB
:20048000360308950F931F93CF93DF9300D000D0CDB7DEB79B01AC01611571058105910554
:2004A00079F069833A834B835C830E94310329813A814B815C810E948C028B019C0103C07D
:2004C00000E010E09801B801C9010F900F900F900F90DF91CF911F910F910895CF92DF9225
:2004E000EF92FF926B017C01621773078407950764F4CA01B9016C197D098E099F090E941E
:200500004202C60ED71EE81EF91EB601C701FF90EF90DF90CF900895052E97FB16F4009456
:2005200007D057FD0DD00E94B30207FC09D07EF490958095709561957F4F8F4F9F4F0895A2
:2005400050954095309521953F4F4F4F5F4F08950E94D502A59F900DB49F900DA49F800DD5
:20056000911D11240895A1E21A2EAA1BBB1BFD010DC0AA1FBB1FEE1FFF1FA217B307E4079E
:20058000F50720F0A21BB30BE40BF50B661F771F881F991F1A9469F7609570958095909529
:2005A0009B01AC01BD01CF010895A29FB001B39FC001A39F01D0B29F700D811D1124911D60
:2005C00008958F929F92AF92BF92CF92DF92EF92FF92CF93DF93EC01688179818A819B81EB
:2005E000611571058105910521F464E279ED8BE597E02DE133EF41E050E00E948C02490150
:200600005A019B01AC01A7EAB1E40E94A8026B017C01ACEEB4EFA50194010E944203C60EA8
:20062000D71EE81EF91EF7FE06C081E0C81AD108E10880E8F80AC882D982EA82FB82E89474
:20064000F7F8B601C701DF91CF91FF90EF90DF90CF90BF90AF909F908F9008950E94E10282
:20066000089580E091E00E94E1020895609300017093010180930201909303010895B7FF61
:180680000C94A8020E94A802821B930B0895F894FFCF01000000010098
:00000001FF
